:10000300D2A0D2A17FF47E0112006EC2A0C2A17F52
:10001300F47E0112006ED2A0D2A17FF47E01120001
:100023006EC2A0C2A17FF47E0112006ED2A0D2A143
:100033007FF47E0112006EC2A0C2A17FF47E011282
:10004300006ED2A0D2A17FF47E0112006EC2A0C2C4
:10005300A17FF47E0112006ED2A0D2A17FF47E01B3
:0B00630012006EC2A0C2A17FF47E015B
:10006E007DA07C0FED1D70011C144C70F7EF1F70FE
:06007E00011E144E70EAA1
:010084002259
:10008500E4F593F594F591F592F595F596F5B1F5B9
:10009500B2F5B3F5B4F5C9F5CAF5CBF5CCF5E1F58F
:1000A500E2F5E97FE87E0312006E120003120003F9
:0300B5000200AF97
:030000000200B843
:0C00B800787FE4F6D8FD75810702008512
:00000001FF
